{
  "address": "0xe7f1725E7734CE288F8367e1Bb143E90bb3F0512",
  "abi": [
    {
      "inputs": [
        {
          "internalType": "address",
          "name": "priceFeedAddress",
          "type": "address"
        }
      ],
      "stateMutability": "nonpayable",
      "type": "constructor"
    },
    {
      "inputs": [],
      "name": "FundMe__InsufficientAmount",
      "type": "error"
    },
    {
      "inputs": [],
      "name": "FundMe__NotOwner",
      "type": "error"
    },
    {
      "inputs": [],
      "name": "FundMe__WithdrawError",
      "type": "error"
    },
    {
      "stateMutability": "payable",
      "type": "fallback"
    },
    {
      "inputs": [],
      "name": "MINIMUM_USD",
      "outputs": [
        {
          "internalType": "uint256",
          "name": "",
          "type": "uint256"
        }
      ],
      "stateMutability": "view",
      "type": "function"
    },
    {
      "inputs": [],
      "name": "fund",
      "outputs": [],
      "stateMutability": "payable",
      "type": "function"
    },
    {
      "inputs": [
        {
          "internalType": "address",
          "name": "funder",
          "type": "address"
        }
      ],
      "name": "getAddressToAmountFunded",
      "outputs": [
        {
          "internalType": "uint256",
          "name": "",
          "type": "uint256"
        }
      ],
      "stateMutability": "view",
      "type": "function"
    },
    {
      "inputs": [
        {
          "internalType": "uint256",
          "name": "index",
          "type": "uint256"
        }
      ],
      "name": "getFunder",
      "outputs": [
        {
          "internalType": "address",
          "name": "",
          "type": "address"
        }
      ],
      "stateMutability": "view",
      "type": "function"
    },
    {
      "inputs": [],
      "name": "getOwner",
      "outputs": [
        {
          "internalType": "address",
          "name": "",
          "type": "address"
        }
      ],
      "stateMutability": "view",
      "type": "function"
    },
    {
      "inputs": [],
      "name": "getPriceFeed",
      "outputs": [
        {
          "internalType": "contract AggregatorV3Interface",
          "name": "",
          "type": "address"
        }
      ],
      "stateMutability": "view",
      "type": "function"
    },
    {
      "inputs": [],
      "name": "withdraw",
      "outputs": [],
      "stateMutability": "nonpayable",
      "type": "function"
    },
    {
      "stateMutability": "payable",
      "type": "receive"
    }
  ],
  "transactionHash": "0x845760ba73fc8ba741f5a482f5aa4aaacad35edd8b90d71cc298a73d32609da1",
  "args": [
    "0x5FbDB2315678afecb367f032d93F642f64180aa3"
  ],
  "numDeployments": 1,
  "solcInputHash": "1e9c04c9d1b9a1125a485656c2b670ee",
  "bytecode": "0x60a06040523480156200001157600080fd5b506040516200129338038062001293833981810160405281019062000037919062000120565b80600260006101000a81548173ffffffffffffffffffffffffffffffffffffffff021916908373ffffffffffffffffffffffffffffffffffffffff1602179055503373ffffffffffffffffffffffffffffffffffffffff1660808173ffffffffffffffffffffffffffffffffffffffff1660601b815250505062000152565b600080fd5b600073ffffffffffffffffffffffffffffffffffffffff82169050919050565b6000620000e882620000bb565b9050919050565b620000fa81620000db565b81146200010657600080fd5b50565b6000815190506200011a81620000ef565b92915050565b600060208284031215620001395762000138620000b6565b5b6000620001498482850162000109565b91505092915050565b60805160601c6111066200018d6000396000818161025c015281816102820152818161047801528181610544015261060c01526111066000f3fe6080604052600436106100745760003560e01c8063893d20e81161004e578063893d20e8146100fc5780639e87a5cd14610127578063b60d428814610152578063d7b4750c1461015c5761007b565b80630343fb251461007d5780633ccfd60b146100ba5780636b69a592146100d15761007b565b3661007b57005b005b34801561008957600080fd5b506100a4600480360381019061009f9190610a5e565b610199565b6040516100b19190610aa4565b60405180910390f35b3480156100c657600080fd5b506100cf6101e2565b005b3480156100dd57600080fd5b506100e661053b565b6040516100f39190610aa4565b60405180910390f35b34801561010857600080fd5b50610111610540565b60405161011e9190610ace565b60405180910390f35b34801561013357600080fd5b5061013c610568565b6040516101499190610b48565b60405180910390f35b61015a610592565b005b34801561016857600080fd5b50610183600480360381019061017e9190610b8f565b610759565b6040516101909190610ace565b60405180910390f35b6000600160008373ffffffffffffffffffffffffffffffffffffffff1673ffffffffffffffffffffffffffffffffffffffff168152602001908152602001600020549050919050565b6102216040518060400160405280600e81526020017f53656e6465725769746864726177000000000000000000000000000000000000815250336107a0565b6102806040518060400160405280600d81526020017f4f776e65725769746864726177000000000000000000000000000000000000008152507f00000000000000000000000000000000000000000000000000000000000000006107a0565b7f000000000000000000000000000000000000000000000000000000000000000073ffffffffffffffffffffffffffffffffffffffff163373ffffffffffffffffffffffffffffffffffffffff1614610305576040517f579610db00000000000000000000000000000000000000000000000000000000815260040160405180910390fd5b60008080548060200260200160405190810160405280929190818152602001828054801561038857602002820191906000526020600020905b8160009054906101000a900473ffffffffffffffffffffffffffffffffffffffff1673ffffffffffffffffffffffffffffffffffffffff168152602001906001019080831161033e575b5050505050905060005b81518110156104135760008282815181106103b0576103af610bbc565b5b602002602001015190506000600160008373ffffffffffffffffffffffffffffffffffffffff1673ffffffffffffffffffffffffffffffffffffffff1681526020019081526020016000208190555050808061040b90610c1a565b915050610392565b50600067ffffffffffffffff81111561042f5761042e610c63565b5b60405190808252806020026020018201604052801561045d5781602001602082028036833780820191505090505b5060009080519060200190610473929190610954565b5060007f000000000000000000000000000000000000000000000000000000000000000073ffffffffffffffffffffffffffffffffffffffff16476040516104ba90610cc3565b60006040518083038185875af1925050503d80600081146104f7576040519150601f19603f3d011682016040523d82523d6000602084013e6104fc565b606091505b5050905080610537576040517fdde7200a00000000000000000000000000000000000000000000000000000000815260040160405180910390fd5b5050565b603281565b60007f0000000000000000000000000000000000000000000000000000000000000000905090565b6000600260009054906101000a900473ffffffffffffffffffffffffffffffffffffffff16905090565b6105d16040518060400160405280600a81526020017f53656e64657246756e6400000000000000000000000000000000000000000000815250336107a0565b6106306040518060400160405280600981526020017f4f776e657246756e6400000000000000000000000000000000000000000000008152507f00000000000000000000000000000000000000000000000000000000000000006107a0565b6032610667600260009054906101000a900473ffffffffffffffffffffffffffffffffffffffff163461083c90919063ffffffff16565b1161069e576040517f7f20846900000000000000000000000000000000000000000000000000000000815260040160405180910390fd5b34600160003373ffffffffffffffffffffffffffffffffffffffff1673ffffffffffffffffffffffffffffffffffffffff16815260200190815260200160002060008282546106ed9190610cd8565b925050819055506000339080600181540180825580915050600190039060005260206000200160009091909190916101000a81548173ffffffffffffffffffffffffffffffffffffffff021916908373ffffffffffffffffffffffffffffffffffffffff160217905550565b600080828154811061076e5761076d610bbc565b5b9060005260206000200160009054906101000a900473ffffffffffffffffffffffffffffffffffffffff169050919050565b61083882826040516024016107b6929190610dc7565b6040516020818303038152906040527f319af333000000000000000000000000000000000000000000000000000000007bffffffffffffffffffffffffffffffffffffffffffffffffffffffff19166020820180517bffffffffffffffffffffffffffffffffffffffffffffffffffffffff838183161783525050505061088b565b5050565b600080610848836108b4565b90506000670de0b6b3a7640000856108609190610e26565b670de0b6b3a7640000836108749190610e26565b61087e9190610e57565b9050809250505092915050565b60008151905060006a636f6e736f6c652e6c6f679050602083016000808483855afa5050505050565b6000808273ffffffffffffffffffffffffffffffffffffffff1663feaf968c6040518163ffffffff1660e01b815260040160a06040518083038186803b1580156108fd57600080fd5b505afa158015610911573d6000803e3d6000fd5b505050506040513d601f19601f820116820180604052508101906109359190610f3e565b5050509150506402540be4008161094c9190610fb9565b915050919050565b8280548282559060005260206000209081019282156109cd579160200282015b828111156109cc5782518260006101000a81548173ffffffffffffffffffffffffffffffffffffffff021916908373ffffffffffffffffffffffffffffffffffffffff16021790555091602001919060010190610974565b5b5090506109da91906109de565b5090565b5b808211156109f75760008160009055506001016109df565b5090565b600080fd5b600073ffffffffffffffffffffffffffffffffffffffff82169050919050565b6000610a2b82610a00565b9050919050565b610a3b81610a20565b8114610a4657600080fd5b50565b600081359050610a5881610a32565b92915050565b600060208284031215610a7457610a736109fb565b5b6000610a8284828501610a49565b91505092915050565b6000819050919050565b610a9e81610a8b565b82525050565b6000602082019050610ab96000830184610a95565b92915050565b610ac881610a20565b82525050565b6000602082019050610ae36000830184610abf565b92915050565b6000819050919050565b6000610b0e610b09610b0484610a00565b610ae9565b610a00565b9050919050565b6000610b2082610af3565b9050919050565b6000610b3282610b15565b9050919050565b610b4281610b27565b82525050565b6000602082019050610b5d6000830184610b39565b92915050565b610b6c81610a8b565b8114610b7757600080fd5b50565b600081359050610b8981610b63565b92915050565b600060208284031215610ba557610ba46109fb565b5b6000610bb384828501610b7a565b91505092915050565b7f4e487b7100000000000000000000000000000000000000000000000000000000600052603260045260246000fd5b7f4e487b7100000000000000000000000000000000000000000000000000000000600052601160045260246000fd5b6000610c2582610a8b565b91507fffffffffffffffffffffffffffffffffffffffffffffffffffffffffffffffff821415610c5857610c57610beb565b5b600182019050919050565b7f4e487b7100000000000000000000000000000000000000000000000000000000600052604160045260246000fd5b600081905092915050565b50565b6000610cad600083610c92565b9150610cb882610c9d565b600082019050919050565b6000610cce82610ca0565b9150819050919050565b6000610ce382610a8b565b9150610cee83610a8b565b9250827fffffffffffffffffffffffffffffffffffffffffffffffffffffffffffffffff03821115610d2357610d22610beb565b5b828201905092915050565b600081519050919050565b600082825260208201905092915050565b60005b83811015610d68578082015181840152602081019050610d4d565b83811115610d77576000848401525b50505050565b6000601f19601f8301169050919050565b6000610d9982610d2e565b610da38185610d39565b9350610db3818560208601610d4a565b610dbc81610d7d565b840191505092915050565b60006040820190508181036000830152610de18185610d8e565b9050610df06020830184610abf565b9392505050565b7f4e487b7100000000000000000000000000000000000000000000000000000000600052601260045260246000fd5b6000610e3182610a8b565b9150610e3c83610a8b565b925082610e4c57610e4b610df7565b5b828204905092915050565b6000610e6282610a8b565b9150610e6d83610a8b565b9250817fffffffffffffffffffffffffffffffffffffffffffffffffffffffffffffffff0483118215151615610ea657610ea5610beb565b5b828202905092915050565b600069ffffffffffffffffffff82169050919050565b610ed081610eb1565b8114610edb57600080fd5b50565b600081519050610eed81610ec7565b92915050565b6000819050919050565b610f0681610ef3565b8114610f1157600080fd5b50565b600081519050610f2381610efd565b92915050565b600081519050610f3881610b63565b92915050565b600080600080600060a08688031215610f5a57610f596109fb565b5b6000610f6888828901610ede565b9550506020610f7988828901610f14565b9450506040610f8a88828901610f29565b9350506060610f9b88828901610f29565b9250506080610fac88828901610ede565b9150509295509295909350565b6000610fc482610ef3565b9150610fcf83610ef3565b9250827f7fffffffffffffffffffffffffffffffffffffffffffffffffffffffffffffff048211600084136000841316161561100e5761100d610beb565b5b817f8000000000000000000000000000000000000000000000000000000000000000058312600084126000841316161561104b5761104a610beb565b5b827f8000000000000000000000000000000000000000000000000000000000000000058212600084136000841216161561108857611087610beb565b5b827f7fffffffffffffffffffffffffffffffffffffffffffffffffffffffffffffff05821260008412600084121616156110c5576110c4610beb565b5b82820290509291505056fea264697066735822122061a1a4ea914f45905c6b28923770923700cddc68b1797ba8621fc5a6447bc51164736f6c63430008080033",
  "devdoc": {
    "author": "Boris Kolev",
    "details": "This implements price feeds as a library",
    "kind": "dev",
    "methods": {
      "fund()": {
        "details": "This implements price feeds as a library"
      }
    },
    "title": "A contract for crowd funding",
    "version": 1
  },
  "userdoc": {
    "kind": "user",
    "methods": {
      "fund()": {
        "notice": "This function funds the contract"
      }
    },
    "notice": "This contract is to demo a sample fund me contract",
    "version": 1
  },
  "storageLayout": {
    "storage": [
      {
        "astId": 331,
        "contract": "contracts/FundMe.sol:FundMe",
        "label": "s_funders",
        "offset": 0,
        "slot": "0",
        "type": "t_array(t_address)dyn_storage"
      },
      {
        "astId": 335,
        "contract": "contracts/FundMe.sol:FundMe",
        "label": "s_addressToAmountFunded",
        "offset": 0,
        "slot": "1",
        "type": "t_mapping(t_address,t_uint256)"
      },
      {
        "astId": 338,
        "contract": "contracts/FundMe.sol:FundMe",
        "label": "s_priceFeed",
        "offset": 0,
        "slot": "2",
        "type": "t_contract(AggregatorV3Interface)102"
      }
    ],
    "types": {
      "t_address": {
        "encoding": "inplace",
        "label": "address",
        "numberOfBytes": "20"
      },
      "t_array(t_address)dyn_storage": {
        "base": "t_address",
        "encoding": "dynamic_array",
        "label": "address[]",
        "numberOfBytes": "32"
      },
      "t_contract(AggregatorV3Interface)102": {
        "encoding": "inplace",
        "label": "contract AggregatorV3Interface",
        "numberOfBytes": "20"
      },
      "t_mapping(t_address,t_uint256)": {
        "encoding": "mapping",
        "key": "t_address",
        "label": "mapping(address => uint256)",
        "numberOfBytes": "32",
        "value": "t_uint256"
      },
      "t_uint256": {
        "encoding": "inplace",
        "label": "uint256",
        "numberOfBytes": "32"
      }
    }
  }
}